:100000000C9462000C948A000C948A000C94940B5B
:100010000C94940B0C94940B0C948A000C948A000E
:100020000C948A000C948A000C948A000C948A0028
:100030000C948A000C94AC080C948A000C948A00EE
:100040000C94E00F0C948A000C94B60D0C94E80DFF
:100050000C948A000C948A000C948A000C948A00F8
:100060000C948A000C948A00000000080002010031
:100070000003040700000000000000000102040863
:100080001020408001020408102001020408102002
:10009000040404040404040402020202020203032E
:1000A00003030303000000002300260029000000D2
:1000B0000000250028002B0000000000240027007D
:1000C0002A00180E11241FBECFEFD8E0DEBFCDBF2F
:1000D00011E0A0E0B1E0EEE2F4E202C005900D9282
:1000E000AC3CB107D9F722E0ACECB1E001C01D9205
:1000F000A03DB207E1F710E0C4ECD0E004C02297C5
:10010000FE010E94E510C23CD107C9F70E94CF0F43
:100110000C9415120C940000DC01ED91FC9102800E
:10012000F381E02D09940E94FA0880E00895CF93AE
:10013000DF93EC010E94A1078AE091E09983888314
:10014000DF91CF910C94EE08FC0182E191E0918364
:100150008083108A138612860895DC01ED91FC914C
:100160000280F381E02D0994CF92DF92EF92FF920B
:10017000CF93DF93EC0179AF68AF5BAF4AAFE88113
:10018000F9810484F585E02D09959B01AC0160ECB3
:100190007FEC8AE690E00E949B10288F398F4A8F6F
:1001A0005B8FC090D201D090D301E090D401F09049
:1001B000D501CC8EDD8EEE8EFF8E232B242B252BAE
:1001C00019F481E090E002C082E090E099A388A356
:1001D000DF91CF91FF90EF90DF90CF900895DC01F9
:1001E000DD968D919C91DE97009769F0DC01ED9191
:1001F000FC910480F581E02D099521E0892B09F41B
:1002000020E0822F089580E00895DC01DD968D9135
:100210009C91DE97DC01ED91FC910680F781E02D49
:1002200009950895DC01DD968D919C91DE97DC01A6
:10023000ED91FC910190F081E02D099521E0892B51
:1002400009F420E0822F0895DC01DD968D919C91C8
:10025000DE97DC01ED91FC910284F385E02D099499
:1002600060E07BE480E090E00895CF93DF93EC01C1
:100270008E859F858330910534F48130910594F407
:10028000892BD9F026C08330910581F0049709F5B8
:10029000E881F9810284F385E02DCE0109951F865E
:1002A0001E8617C0CE010E945F0613C0E881F98147
:1002B0000084F185E02DCE01099540E85AE166E021
:1002C00070E04A875B876C877D8781E090E09F873D
:1002D0008E8780E0DF91CF91089546970C94350189
:1002E000FC0180819181019721F41182108260E0EC
:1002F00005C081E090E09183808361E082810C946D
:10030000800D0F931F93CF93DF93FC0180898111A0
:1003100042C061157105A1F061307105E9F44091A9
:10032000D2015091D3016091D4017091D501028125
:10033000138124813581400F511F621F731F08C034
:100340004091D2015091D3016091D4017091D501B7
:100350004683578360877187A485B585AA0FBB1F25
:10036000A453BE4FCD91DC9111972097B1F04681F7
:100370005781608571850E811F8128853985401BD5
:10038000510B620B730B4F3F5F4F6F4F7F4728F44A
:10039000DE011E96E7CF80E006C0D787C687ED93C3
:1003A000FC9381E0808BDF91CF911F910F91089595
:1003B00021E0FC0124AF61E070E087960C9481019C
:1003C000DC01D896ED91FC91D997309711F13481E9
:1003D00025813217B1F0238140813181A42FB32FC1
:1003E000A20FB11DA20FB11D8D939C93838190E04C
:1003F0000196658170E00E946510838384818F5F20
:10040000848380859185009721F061E070E00C94F1
:1004100081010895EF92FF920F931F93CF93DF9383
:100420008C01FC01C2ADD3AD2097D9F12C812111F3
:100430000EC08E819F810097A1F161E070E0DF9195
:10044000CF911F910F91FF90EF900C948101EA8062
:10045000F12CC70101966D8170E00E9465108A83BE
:1004600021502C8388859985009721F061E070E008
:100470000E948101EE0CFF1CE881F981EE0DFF1D49
:10048000C081D181209769F0BE01C8010E9449074F
:10049000CE01DF91CF911F910F91FF90EF900C94BF
:1004A000A40FDF91CF911F910F91FF90EF900895CE
:1004B0002F923F924F925F926F927F928F929F9274
:1004C000AF92BF92CF92DF92EF92FF920F931F9362
:1004D000CF93DF9300D0CDB7DEB74C01E091DE01C2
:1004E000F091DF01848D958D8130910551F182303D
:1004F000910509F45DC0892B09F05EC044895589D6
:10050000668977898091D2019091D301A091D4011D
:10051000B091D501841B950BA60BB70B8F3F9F4F56
:10052000AF4FBF4708F049C0808D918DA28DB38D2C
:10053000840F951FA61FB71F848B958BA68BB78B37
:1005400037C0148525843684478450886188728832
:10055000B389212F322D432D542D652D762D872DD6
:100560009B2FA1E00E94BA102487358746875787C2
:10057000608B718B828B938BA480B580C680D78073
:10058000E084F1840285A385212F322D432D542D43
:10059000652D762D872D9B2F1A2F0E94C61069F48A
:1005A0001486158616861786108A118A128A138A6F
:1005B000CF010E94700101C0FFCFF40184AD8823F8
:1005C00059F014AE82E089831A82BE016F5F7F4FBB
:1005D000C4010E94490703C0C4010E940A0280E0CE
:1005E0000F900F90DF91CF911F910F91FF90EF909F
:1005F000DF90CF90BF90AF909F908F907F906F9043
:100600005F904F903F902F90089587970C945802D9
:100610000F931F93CF93DF93EC010E944206CE010C
:1006200046960E941609CE0187960E94A10719AE30
:1006300018AE1BAE1AAE1CAE88E191E09983888398
:1006400080E391E09F8B8E8B88E391E098A78FA346
:100650008FE190E00E94A00F8C0120E04BE06AE067
:100660000E94600C1EAF0DAF40E05BE460E070E004
:10067000C8010E94900C8DAD9EADDC01ED91FC9106
:100680000284F385E02DDF91CF911F910F910994A2
:100690008DE991E0089580919C010895E0912602F2
:1006A000F091270250E00280F381E02D86E292E093
:1006B00009946F927F928F929F92AF92BF92CF9246
:1006C000DF92EF92FF920F931F93CF93DF939C01E2
:1006D000DC015596ED91FC915697309709F4D5C001
:1006E0004481411144C00680F781E02D309709F420
:1006F000CCC080898111C9C08091D2019091D30171
:10070000A091D401B091D50142815381648175815A
:10071000840F951FA61FB71F86839783A087B18775
:10072000C484D584CC0CDD1CE601C453DE4F6E01BD
:10073000E601288139812115310509F499C0E901C3
:100740004E815F81688579854C015D01841A950A27
:10075000A60AB70A0FEF80169006A0060FE7B006AC
:1007600008F086C06901DEE0CD0ED11CE1CF028128
:1007700010E0C8010196658170E00E9465108283D7
:1007800041504483A085B185109709F448C0509624
:100790008C915097811143C04091D2015091D30167
:1007A0006091D4017091D5011296CD90DD90ED90BD
:1007B000FC9015974C0D5D1D6E1D7F1D16964D937B
:1007C0005D936D937C9319971C966D907C901D970B
:1007D000660C771CC30184539E4F3C01E301888162
:1007E0009981009791F0EC01CE80DF80E884F98454
:1007F0004A015B018C189D08AE08BF08CFEF8C162C
:100800009C06AC06CFE7BC06D8F11F969C938E934E
:100810001E97E301B983A88381E050968C93000F63
:10082000111F0190F081E02DE00FF11FC081D181F7
:10083000209759F1D901ED91FC9148814250BE01B8
:100840006E5F7F4F0680F781E02DC9010995CE01CB
:10085000DF91CF911F910F91FF90EF90DF90CF909C
:10086000BF90AF909F908F907F906F900C94A40F4B
:1008700037872687D601ED93FC9381E0808B05C0F6
:100880003C01DEE06D0E711CA9CFDF91CF911F916D
:100890000F91FF90EF90DF90CF90BF90AF909F901F
:1008A0008F907F906F9008950E94590380E0089583
:1008B00004970C945404EF92FF920F931F93CF93DD
:1008C000DF93EC0180E491E0998388838091E001DB
:1008D0009091E1019B838A83D093E101C093E00171
:1008E0007E0184E0E80EF11CC7010E94A1078AE89E
:1008F00091E09983888388E991E09D838C838AE0E5
:1009000090E00E94A00F8C018AE090E00E94A20F6C
:10091000F8019183808317821682F186E086138224
:100920001282148285E085831E8B0D8B8AE491E010
:100930009983888388E591E09D838C8326E040E855
:1009400055E260E070E086E292E0DF91CF911F9186
:100950000F91FF90EF900C943E0FFC01728B618B16
:10096000548B438B08950F931F93CF93DF93FC0118
:10097000EE0FFF1FE453FE4FC081D181209791F10C
:100980004091D2015091D3016091D4017091D50171
:100990000E811F8128853985401B510B620B730B1B
:1009A0004F3F5F4F6F4F7F47E8F48E859F85918360
:1009B00080831F861E86188A8A859B8501970297E9
:1009C00038F4E881F9810190F081E02DCE0109959C
:1009D0008A859B85029741F461E070E0CE010E9418
:1009E000810102C080E001C081E0DF91CF911F91C1
:1009F0000F910895AF92BF92CF92DF92EF92FF9244
:100A00000F931F93CF93DF93E091D801F091D90119
:100A1000C2E0D0E0D58FC48F1182108260E0828165
:100A20000E94800DE091DE01F091DF01D58FC48F2F
:100A30001182108260E082810E94800D0E94FC0879
:100A4000EC0185E190E00E94A00F6C010E94160964
:100A500080E691E0F60191838083128A118A0E94D8
:100A600009098AE090E00E94A00F7C01209721F004
:100A70008E010A5E1F4F02C000E010E082E090E0AD
:100A80000E94A20FF7019183808317830683D1868A
:100A9000C08613821282148281E085838AE090E00E
:100AA0000E94A00F8C01209729F05E01F7E2AF0EA3
:100AB000B11C02C0A12CB12C86E090E00E94A20FD4
:100AC000F80191838083D782C682B186A086138283
:100AD0001282148283E08583F9AEE8AE1BAF0AAFC1
:100AE000E881F9810484F585E02DCE0109959B010B
:100AF000AC0160EC7FEC8AE690E00E949B10288FAE
:100B0000398F4A8F5B8F8091D2019091D301A09150
:100B1000D401B091D5018C8F9D8FAE8FBF8F232BC9
:100B2000242B252B19F481E090E002C082E090E0B4
:100B300099A388A3F601F28AE18A148B038B20978C
:100B400019F0CE01469602C080E090E061E070E0CE
:100B5000DF91CF911F910F91FF90EF90DF90CF9099
:100B6000BF90AF900C948101EF92FF920F931F936F
:100B7000CF93DF938C01DC015196CD91DC9152979C
:100B8000209709F44EC02C81211103C08E819F81D2
:100B900042C0EA80F12CC70101966D8170E00E948D
:100BA00065108A8321502C8388859985009721F0D0
:100BB00061E070E00E948101EE0CFF1CE881F98188
:100BC000EE0DFF1D80819181009759F10E944A0A24
:100BD000009739F1D8015396ED91FC9154973481E7
:100BE00025813217B1F0238140813181A42FB32FA9
:100BF000A20FB11DA20FB11D8D939C93838190E034
:100C00000196658170E00E946510838384818F5F07
:100C1000848380859185009721F061E070E00E94D7
:100C2000810180E0DF91CF911F910F91FF90EF90B4
:100C30000895CF93DF9382E090E00E94A00FEC0133
:100C4000198218820E94C3098AE691E099838883F9
:100C5000D093D701C093D601E881F9810190F0814A
:100C6000E02DCE010995DF91CF910C94A60881E08B
:100C700090E00E94B304811104C082E090E00C94E3
:100C8000B3040895CF93DF93EC0180E791E099835B
:100C9000888388E790E00E94A20F98878F831F8641
:100CA0001E86DF91CF910895282FFC0180E09E2FB2
:100CB000921B961718F49191890FF9CF08950F930D
:100CC0001F93CF93DF93EC018E859F858230910532
:100CD00029F104F5009709F4D7C00197B9F54091BF
:100CE000D2015091D3016091D4017091D5018A85D0
:100CF0009B85AC85BD85480F591F6A1F7B1F4A83A2
:100D00005B836C837D831D8A1C8A82E090E09F87D1
:100D10008E871CC085309105CCF4B6C04091D201BD
:100D20005091D3016091D4017091D5018A819B814A
:100D3000AC81BD81481B590B6A0B7B0B4F3F5F4F4A
:100D40006F4F7F4718F484E090E097C0E881F98105
:100D50000190F081E02DCE010995882309F492C01D
:100D60008C899D898230910541F12CF4009759F0CE
:100D70000197B1F087C084309105D1F16CF10597EE
:100D800009F454C07FC0E881F9810280F381E02D2D
:100D9000CE0109958A3A09F075C081E090E043C020
:100DA000E881F9810280F381E02DCE010995853536
:100DB00009F068C082E090E036C0E881F9810280E5
:100DC000F381E02DCE0109958B8B8550843708F097
:100DD00057C083E090E027C0E881F9810280F38169
:100DE000E02DCE0109958E831A8A84E090E01BC025
:100DF0004A89242F30E08B8990E00597281739071E
:100E000084F40F8118854F5F4A8B020F131FE8810E
:100E1000F9810280F381E02DCE010995F8018083EC
:100E200031C085E090E09D8B8C8B2CC062E08CE71C
:100E300091E00E945406182F61E0CE0143960E9473
:100E40005406180F61E0CE0106960E945406180F52
:100E50006B8965508F8198850E945406180FE88130
:100E6000F9810280F381E02DCE010995811308C03C
:100E70008B898550898783E090E09F878E8704C0A7
:100E80001D8A1C8A8E859F85DF91CF911F910F91BE
:100E90000895BF92CF92DF92EF92FF920F931F932C
:100EA000CF93DF93EC017B01DB01DD908D01E881C5
:100EB000F9810480F581E02D6AEA0995E881F981DC
:100EC0000480F581E02D65E5CE010995E881F98181
:100ED00063E06D0D0480F581E02DCE01099582E07F
:100EE000B82EBD0CD7018C9190E0E881F981980172
:100EF0002E193F09281739076CF468010480F58121
:100F0000E02DD8016D918D01CE010995F60180810A
:100F1000B80EE8CF0480F581E02D6B2DCE01099548
:100F2000E881F9810680F781E02DCE010995DF91F6
:100F3000CF911F910F91FF90EF90DF90CF90BF90D6
:100F40000895CF92DF92EF92FF920F931F93CF936A
:100F5000DF93EC010E94A40082E891E099838883EA
:100F600082E090E09D878C871A821B821C821D8202
:100F70008091D2019091D301A091D401B091D5017B
:100F80008E839F83A887B98781E090E09B878A87BB
:100F9000888981112EC04091D2015091D301609176
:100FA000D4017091D5014E835F8368877987A0ED66
:100FB000B1E0ED91FC911197309789F0068117818E
:100FC000208531856A017B01C01AD10AE20AF30A41
:100FD0008FEFC816D806E8068FE7F80638F0FF87C7
:100FE000EE87CD93DC9381E0888B03C0DF011E96F2
:100FF000E0CFDF91CF911F910F91FF90EF90DF90A5
:10100000CF900895CF92DF92EF92FF920F931F93AC
:10101000CF93DF93FC010097E9F1808981113AC0F9
:101020004091D2015091D3016091D4017091D501CA
:1010300082819381A481B581480F591F6A1F7B1F4C
:101040004683578360877187A485B585AA0FBB1F28
:10105000A453BE4FCD91DC911197209789F00E815A
:101060001F81288539856A017B01C01AD10AE20AED
:10107000F30A8FEFC816D806E8068FE7F80638F0AF
:10108000D787C687ED93FC9381E0808B03C0DE0198
:101090001E96E0CFDF91CF911F910F91FF90EF90BF
:1010A000DF90CF9008950F931F93CF93DF938C0120
:1010B000EB0189818130E9F5D80155968D919C919C
:1010C0005697892BB1F1888190E00E94A20F00977A
:1010D00081F1DC01FE01288130E0AF014C1B5D0B8A
:1010E0004217530718F421912D93F5CFD801559647
:1010F000ED91FC915697348125813217B1F023810F
:1011000040813181A42FB32FA20FB11DA20FB11DB9
:101110008D939C93838190E00196658170E00E949D
:101120006510838384818F5F8483808591850E948D
:10113000020880E090E0DF91CF911F910F91089518
:101140001092800082E0809381000895EFE6F0E045
:1011500080818160808308951F920F920FB60F9255
:1011600011242F933F934F935F936F937F938F93AC
:101170009F93AF93BF93EF93FF938091D201909190
:10118000D301A091D401B091D50188519C4FAF4FAC
:10119000BF4F8093D2019093D301A093D401B09319
:1011A000D50180EE97EF909385008093840080E0D6
:1011B00090E00E94B3048111FACFFF91EF91BF91AB
:1011C000AF919F918F917F916F915F914F913F91DF
:1011D0002F910F900FBE0F901F90189529E288E174
:1011E00090E00FB6F894A895809360000FBE20930E
:1011F00060000895A8950895CF93DF938FE390E062
:101200000E94A00FEC010E940803CE01DF91CF9154
:101210000895CF93DF9387E190E00E94A00FEC0147
:101220000E945B04CE01DF91CF910895CF92DF92AF
:10123000EF92FF920F931F93CF93DF93EC010E94E5
:10124000A40082EA91E09983888321E030E03D8721
:101250002C871A821B821C821D828091D201909160
:10126000D301A091D401B091D5018E839F83A8872B
:10127000B9873B872A87888981112EC04091D20186
:101280005091D3016091D4017091D5014E835F8359
:1012900068877987AEECB1E0ED91FC9111973097BA
:1012A00089F006811781208531856A017B01C01A8A
:1012B000D10AE20AF30A8FEFC816D806E8068FE7CC
:1012C000F80638F0FF87EE87CD93DC9381E0888BBA
:1012D00003C0DF011E96E0CFDF91CF911F910F91E8
:1012E000FF90EF90DF90CF900895CF93DF93EC01C4
:1012F000862F6A837B8361E00E94470D82E090E045
:101300009D8F8C8F1982188260E08A81DF91CF9146
:101310000C94800DCF93DF938EE190E00E94A00F9C
:10132000EC016DE070E00E947509D093DF01C0937D
:10133000DE018EE190E00E94A00FEC0164E070E01D
:101340000E947509D093DD01C093DC018EE190E02D
:101350000E94A00FEC0165E070E00E947509D09337
:10136000DB01C093DA018EE190E00E94A00FEC0156
:1013700066E070E00E947509D093D901C093D8014E
:10138000DF91CF910895CF92DF92EF92FF920F936A
:101390001F93CF93DF932AEA31E0FC01318320834E
:1013A0001092D2011092D3011092D4011092D50163
:1013B0000E948A091092CD011092CC011092CF01A7
:1013C0001092CE011092D1011092D0010E94A0087B
:1013D00081E190E00E94A00FEC010E94970080EC58
:1013E0009FECAAE6B0E08A839B83AC83BD838091A7
:1013F000D2019091D301A091D401B091D5018E83F7
:101400009F83A887B98782E090E09B878A87888935
:10141000811137C04091D2015091D3016091D40124
:101420007091D5014054504365497F4F4E835F838F
:1014300068877987EC85FD85EE0FFF1FE453FE4F2B
:10144000A081B181109799F016960D911D912D9163
:101450003C9119976A017B01C01AD10AE20AF30A8A
:101460008FEFC816D806E8068FE7F80638F0BF8772
:10147000AE87D183C08381E0888B03C0FD013E9697
:10148000DFCFDF91CF911F910F91FF90EF90DF9011
:10149000CF900895BF92CF92DF92EF92FF920F9379
:1014A0001F93CF93DF93EC010F811885D98488E7D0
:1014B00090E00E94A20F7C0182E0F70180838E8180
:1014C0008183DD2099F1C091E001D091E101209765
:1014D00019F1F801C180B12CE881F9810280F38112
:1014E000E02DCE010995B816E8F4E881F981019064
:1014F000F081E02DCE0109958B0D911DFC018081BD
:101500008C1511F0B394E8CFE881F9810480F5815E
:10151000E02DB801CE010995F8018081D81A080F95
:10152000111DCFCF0A80DB81C02DD1CFC701DF9144
:10153000CF911F910F91FF90EF90DF90CF90BF90D0
:101540000895209124023091250228173907B9F413
:101550009091E2018091E301981789F0E091E20116
:10156000F0E0EC51FE4F80812091E20130E02F5FEE
:101570003F4F2F7333272093E20190E008958FEFC0
:101580009FEF08951F93CF93DF93DC015C968D91BD
:101590009C915D97009749F481E090E013969C93AD
:1015A0008E93129780E090E03BC05196ED91FC91B4
:1015B000529750962C915097322F30951FB75E96C8
:1015C0004C915E9741FB772770F941FD6095F89447
:1015D0004081772311F0422B01C043234083EC016B
:1015E0002197F1F748E0508160FF02C0522B01C003
:1015F00053235083EC012197F1F76695415099F7F9
:101600008081772311F0832301C0822B80831FBF49
:101610005C968D919C915D970197F1F781E090E048
:10162000DF91CF911F9108952091240230912502DE
:101630002817390781F49091E2018091E30198170E
:1016400051F0E091E201F0E0EC51FE4F80819927EA
:1016500087FD909508958FEF9FEF089520912402C4
:10166000309125022817390771F48091E301209108
:10167000E20190E0805C9F4F821B910960E470E082
:101680000E946510089580E090E008952091240262
:10169000309125022817390739F48FB7F894109242
:1016A000E3011092E2018FBF0895E0912402F091CE
:1016B0002502E817F90769F4A389B4899C91858903
:1016C000809589238C93109225021092240281E048
:1016D000089580E00895CF93DF93EC018A8D9B8D70
:1016E000892BF1F080912402909125028C179D079F
:1016F000B9F0009711F00E94550B8E8D8E7F8E8F62
:101700001092E3011092E201D0932502C0932402CB
:10171000EB89FC8980819D89892B808381E001C0D0
:1017200080E0DF91CF9108951F920F920FB60F9234
:1017300011242F933F934F935F936F937F938F93D6
:101740009F93AF93BF93EF93FF93E0912402F091A7
:101750002502309709F451C0868DA685B7859585F9
:1017600081FF04C08C91892329F447C08C9189237F
:1017700009F043C0A389B4899C9185898095892308
:101780008C93868997890197F1F7208D318DA685F5
:10179000B785758558E040E0C9010197F1F7842FBE
:1017A00090E095958795482F6C91672309F04068E4
:1017B000515091F7868D81FD40958091E30190E035
:1017C00001968F7399272091E201281749F0A09183
:1017D000E301B0E0AC51BE4F4C938093E30103C0F2
:1017E000868D8160868F828D938D0197F1F7A38915
:1017F000B4898C919589892B8C93FF91EF91BF913E
:10180000AF919F918F917F916F915F914F913F9198
:101810002F910F900FBE0F901F9018951F93CF938D
:10182000DF93EC01162F6E8D6695617081E068275D
:10183000812F0E94800D61E0812F0E94470D812F32
:1018400090E0FC01E458FF4FE491E88BFC01E05785
:10185000FF4FE491F0E0EE0FFF1FE255FF4F85913F
:1018600094919A8B898BDF91CF911F9108951F934B
:10187000CF93DF93EC01162F60E0812F0E94470D7C
:101880008E8D81FD04C061E0812F0E94800D1C8738
:10189000812F90E0FC01E458FF4FE491ED87FC01BB
:1018A000E057FF4FE491F0E0EE0FFF1FEC55FF4FC4
:1018B000859194919F878E87DF91CF911F91089595
:1018C000FF920F931F93CF93DF93EC01F62E522FCD
:1018D0001B821A8208EE13E020E030E00C831D83A7
:1018E0002E833F8380EB91E0998388831F8A1E8A31
:1018F000198E188E1B8E1A8E1D8E1C8E8E8D8E7FCD
:1019000050FB81F98E8F642FCE010E940E0C6F2D3B
:10191000CE01DF91CF911F910F91FF900C94370C66
:10192000CF93DF93EC019A01AB011B8E1A8E198EB7
:10193000188E1F8A1E8A60E079E08DE390E00E9495
:101940009B10C9012430310520F0B90163507109A1
:1019500002C061E070E07D8F6C8FEC85E63108F0AD
:1019600068C0B901769567956431710518F06351C7
:10197000710902C061E070E07F8B6E8B069718F0F2
:10198000C901059702C081E090E0998F888FC90155
:10199000880F991F820F931F969587959695879527
:1019A0008D30910510F00C9702C081E090E09B8F84
:1019B0008A8F20916800E83050F091E0EE3008F412
:1019C00090E081E001C0880F9A95EAF701C084E0B9
:1019D000822B809368002C85283038F02E3040F020
:1019E000263148F48CE690E008C08DE690E005C012
:1019F0008BE690E002C080E090E09C8B8B8B2830DF
:101A000030F481E001C0880F2A95EAF70DC0822FDB
:101A100090E02E3010F4089701C00E9791E001C0BD
:101A2000990F8A95EAF7892F8D8B8C8D9D8D019763
:101A3000F1F7CE01DF91CF910C946B0B833081F0E5
:101A400028F4813099F08230A1F008958730A9F010
:101A50008830B9F08430D1F4809180008F7D03C04C
:101A6000809180008F7780938000089584B58F7770
:101A700002C084B58F7D84BD08958091B0008F77BA
:101A800003C08091B0008F7D8093B0000895CF9304
:101A9000DF9390E0FC01E458FF4F2491FC01E057F4
:101AA000FF4F8491882349F190E0880F991FFC0132
:101AB000E854FF4FA591B49182559F4FFC01C59109
:101AC000D4919FB7611108C0F8948C91209582231E
:101AD0008C93888182230AC0623051F4F8948C91EF
:101AE000322F309583238C938881822B888304C086
:101AF000F8948C91822B8C939FBFDF91CF910895A6
:101B00000F931F93CF93DF931F92CDB7DEB7282F8C
:101B100030E0F901E859FF4F8491F901E458FF4F93
:101B20001491F901E057FF4F04910023C9F0882375
:101B300021F069830E941E0D6981E02FF0E0EE0F15
:101B4000FF1FE255FF4FA591B4919FB7F8948C9178
:101B5000611103C01095812301C0812B8C939FBF1D
:101B60000F90DF91CF911F910F9108951F920F92C7
:101B70000FB60F9211242F938F939F93EF93FF93A0
:101B8000E0913602F09137028081E0913C02F091C1
:101B90003D0282FD12C0908180913F028F5F8F7362
:101BA00020914002821751F0E0913F02F0E0EA5D9F
:101BB000FD4F958F80933F0201C08081FF91EF918F
:101BC0009F918F912F910F900FBE0F901F9018959E
:101BD0001F920F920FB60F9211242F933F934F93A2
:101BE0005F936F937F938F939F93AF93BF93EF9385
:101BF000FF9386E292E00E94960EFF91EF91BF91D3
:101C0000AF919F918F917F916F915F914F913F9194
:101C10002F910F900FBE0F901F90189586E292E0C3
:101C20000E945B0E21E0892B09F420E0822F0895A9
:101C3000109229021092280288EE93E0A0E0B0E012
:101C400080932A0290932B02A0932C02B0932D0232
:101C500080EC91E0909327028093260285EC90E03F
:101C6000909333028093320284EC90E0909335029B
:101C70008093340280EC90E0909337028093360298
:101C800081EC90E0909339028093380282EC90E0EE
:101C900090933B0280933A0286EC90E090933D0251
:101CA00080933C0210923F02109240021092410237
:101CB000109242020895FC01818D228D90E0805C9B
:101CC0009F4F821B91098F7399270895FC01918D75
:101CD000828D981731F0828DE80FF11D858D90E08F
:101CE00008958FEF9FEF0895FC01918D828D9817D5
:101CF00061F0828DDF01A80FB11D5D968C91928DF0
:101D00009F5F9F73928F90E008958FEF9FEF0895EC
:101D10008EE09EE0892B49F080E090E0892B29F04D
:101D20000E940E0E81110C9400000895FC01848D18
:101D3000DF01A80FB11DA35ABF4F2C91848D90E0F5
:101D400001968F739927848FA689B7892C93A089D0
:101D5000B1898C9180648C93938D848D981306C087
:101D60000288F389E02D80818F7D80830895CF9351
:101D7000DF93EC01888D8823C9F0EA89FB89808193
:101D800085FD05C0A889B9898C9186FD0FC00FB665
:101D900007FCF5CF808185FFF2CFA889B9898C91A6
:101DA00085FFEDCFCE010E94960EE7CFDF91CF9158
:101DB0000895CF92DF92FF920F931F93CF93DF93FB
:101DC0001F92CDB7DEB76C0181E0D60158968C9397
:101DD00058975B969C915B975C968C915C97981357
:101DE00007C05096ED91FC915197808185FD2EC0E2
:101DF000F601038D10E00F5F1F4F0F731127F02EB8
:101E0000F601848DF81211C00FB607FCF9CFD60188
:101E10005096ED91FC915197808185FFF1CFC601DD
:101E200069830E94960E6981EBCF838DE80FF11DC7
:101E3000E35AFF4F6083D6015B960C935B975296F3
:101E4000ED91FC915397808180620CC0D60156962B
:101E5000ED91FC91579760835096ED91FC915197CD
:101E600080818064808381E090E00F90DF91CF914A
:101E70001F910F91FF90DF90CF900895BF92CF9266
:101E8000DF92EF92FF92CF93DF93EC016A017B0127
:101E9000B22EE889F98982E08083411581EE5807E6
:101EA00061057105A1F060E079E08DE390E0A701A4
:101EB00096010E9479102150310941095109569526
:101EC000479537952795211580E1380798F0E889DF
:101ED000F989108260E874E88EE190E0A70196012C
:101EE0000E947910215031094109510956954795B1
:101EF00037952795EC85FD853083EE85FF8520831A
:101F0000188EEC89FD89B082EA89FB898081806125
:101F10008083EA89FB89808188608083EA89FB89E4
:101F2000808180688083EA89FB8980818F7D8083BE
:101F3000DF91CF91FF90EF90DF90CF90BF90089509
:101F40000C94E9100C94E9100C948111CF92DF925B
:101F5000EF92FF920F931F93CF93DF936C017A015F
:101F6000EB01E60EF71E00E010E0CE15DF0561F094
:101F70006991D601ED91FC910190F081E02DC601AF
:101F80000995080F191FF1CFC801DF91CF911F915B
:101F90000F91FF90EF90DF90CF90089508950E94E9
:101FA0002A100E94CE0F0E941906C8E8DEE00E94A7
:101FB00037062097E1F30E94880EF9CF0E94101295
:101FC0001F920F920FB60F9211242F933F938F936E
:101FD0009F93AF93BF938091C4029091C502A0914B
:101FE000C602B091C7023091C30223E0230F2D3700
:101FF00020F40196A11DB11D05C026E8230F02960D
:10200000A11DB11D2093C3028093C4029093C50209
:10201000A093C602B093C7028091C8029091C902F2
:10202000A091CA02B091CB020196A11DB11D80936F
:10203000C8029093C902A093CA02B093CB02BF9189
:10204000AF919F918F913F912F910F900FBE0F9065
:102050001F901895789484B5826084BD84B58160A2
:1020600084BD85B5826085BD85B5816085BDEEE6A0
:10207000F0E0808181608083E1E8F0E0108280817F
:1020800082608083808181608083E0E8F0E08081ED
:1020900081608083E1EBF0E0808184608083E0EB0D
:1020A000F0E0808181608083EAE7F0E080818460F5
:1020B0008083808182608083808181608083808151
:1020C000806880831092C100089597FB072E16F454
:1020D000009407D077FD09D00E94CF1007FC05D0EF
:1020E0003EF4909581959F4F0895709561957F4F2F
:1020F0000895A1E21A2EAA1BBB1BFD010DC0AA1F49
:10210000BB1FEE1FFF1FA217B307E407F50720F060
:10211000A21BB30BE40BF50B661F771F881F991FDB
:102120001A9469F760957095809590959B01AC0124
:10213000BD01CF010895052E97FB1EF400940E9467
:10214000B21057FD07D00E94791007FC03D04EF45F
:102150000C94B21050954095309521953F4F4F4FBC
:102160005F4F089590958095709561957F4F8F4F43
:102170009F4F08950024A7FD00942A0F301D401D95
:10218000501D601D701D801D901D08952A153B0572
:102190004C055D056E057F05800791070895AA1B14
:1021A000BB1B51E107C0AA1FBB1FA617B70710F042
:1021B000A61BB70B881F991F5A95A9F78095909574
:1021C000BC01CD010895EE0FFF1F0590F491E02DA5
:1021D0000994CF93DF938230910510F482E090E070
:1021E000E091CE02F091CF0220E030E0A0E0B0E03C
:1021F000309739F14081518148175907B8F0481795
:10220000590771F482819381109729F013969C935A
:102210008E9312972CC09093CF028093CE0227C04A
:102220002115310531F04217530718F0A901DB01E0
:1022300001C0EF019A01BD01DF010280F381E02DB1
:10224000D7CF21153105F9F0281B390B2430310582
:1022500080F48A819B816115710521F0FB019383D4
:10226000828304C09093CF028093CE02FE01329607
:1022700044C0FE01E20FF31F819391932250310974
:10228000398328833AC02091CC023091CD02232B90
:1022900041F420910201309103013093CD0220934B
:1022A000CC0220910001309101012115310541F44A
:1022B0002DB73EB74091040150910501241B350B09
:1022C000E091CC02F091CD02E217F307A0F42E1BAF
:1022D0003F0B2817390778F0AC014E5F5F4F24178A
:1022E000350748F04E0F5F1F5093CD024093CC024C
:1022F0008193919302C0E0E0F0E0CF01DF91CF91B4
:102300000895CF93DF93009709F487C0FC013297BB
:1023100013821282C091CE02D091CF02209781F415
:1023200020813181280F391F8091CC029091CD02FC
:102330008217930779F5F093CD02E093CC026DC03C
:10234000DE0120E030E0AE17BF0750F412964D9149
:102350005C9113979D014115510509F1DA01F3CF05
:10236000B383A28340815181840F951F8A179B07F5
:1023700071F48D919C911197840F951F0296918312
:10238000808312968D919C9113979383828321155C
:10239000310529F4F093CF02E093CE023EC0D9017B
:1023A0001396FC93EE9312974D915D91A40FB51F78
:1023B000EA17FB0779F480819181840F951F0296BB
:1023C000D90111969C938E938281938113969C934D
:1023D0008E931297E0E0F0E08A819B81009719F0DC
:1023E000FE01EC01F9CFCE01029628813981820FDE
:1023F000931F2091CC023091CD022817390769F440
:10240000309729F41092CF021092CE0202C01382AC
:102410001282D093CD02C093CC02DF91CF91089568
:0E24200081E090E0F8940C941512F894FFCF30
:10242E000000D0028000000000008C00930000002D
:10243E000000DE0F00000000EF0005011201240174
:10244E00E001D8013001B40035015802EAFF000066
:10245E00AD006D01D9FF00008C00050300000000E7
:10246E00DE0FDE0FDE0F0000000048034B035308A3
:10247E004E035404FCFF00008C00580400000000C2
:10248E00AD00B405AD0400000000FA040000000029
:10249E00DE0FDE0FDE0FDE0FDE0FDE0FAA550000A1
:1024AE0000008C00DE0F0000000048034B035308B1
:1024BE00DE0F5404FCFF00008C00580401010000E4
:1024CE000000AD00DE0F00000000DE0F0000000077
:1024DE00C20AA60F2E0BA10A140B460B0000000019
:0C24EE00D90EA60F5B0E740E660EB70E22
:00000001FF
